{
  "transactions": [
    {
      "hash": "0xbf2e88a1e7f5a99402143895630e180636c1b6143a2d818d5a2fc9d5a2b40d08",
      "transactionType": "CALL",
      "contractName": null,
      "contractAddress": "0x50E21e7c696bfdE12ae2A1ee0F627F7E3C9Ea0D5",
      "function": "transfer(address,uint256)",
      "arguments": [
        "0x2ae3d5567651F6fB7FF61863CA4F7c9E0f277CFE",
        "0"
      ],
      "transaction": {
        "type": "0x02",
        "from": "0x5452b3c46e756e8bcf482ee6490ddcb9f5ef83df",
        "to": "0x50e21e7c696bfde12ae2a1ee0f627f7e3c9ea0d5",
        "gas": "0xef7e",
        "value": "0x0",
        "data": "0xa9059cbb0000000000000000000000002ae3d5567651f6fb7ff61863ca4f7c9e0f277cfe0000000000000000000000000000000000000000000000000000000000000000",
        "nonce": "0x0",
        "accessList": []
      },
      "additionalContracts": [],
      "isFixedGasLimit": false
    },
    {
      "hash": "0x7e5d8499f6c62f7e7a1c2172749ceb281deba401a68c5515649a07b921b01262",
      "transactionType": "CALL",
      "contractName": null,
      "contractAddress": "0x8Dbe110E3f19f5C840e9Ee10e9887DfD234f777F",
      "function": "transfer(address,uint256)",
      "arguments": [
        "0x2ae3d5567651F6fB7FF61863CA4F7c9E0f277CFE",
        "0"
      ],
      "transaction": {
        "type": "0x02",
        "from": "0x5452b3c46e756e8bcf482ee6490ddcb9f5ef83df",
        "to": "0x8dbe110e3f19f5c840e9ee10e9887dfd234f777f",
        "gas": "0xef7e",
        "value": "0x0",
        "data": "0xa9059cbb0000000000000000000000002ae3d5567651f6fb7ff61863ca4f7c9e0f277cfe0000000000000000000000000000000000000000000000000000000000000000",
        "nonce": "0x1",
        "accessList": []
      },
      "additionalContracts": [],
      "isFixedGasLimit": false
    }
  ],
  "receipts": [],
  "libraries": [],
  "pending": [
    "0xbf2e88a1e7f5a99402143895630e180636c1b6143a2d818d5a2fc9d5a2b40d08",
    "0x7e5d8499f6c62f7e7a1c2172749ceb281deba401a68c5515649a07b921b01262"
  ],
  "returns": {},
  "timestamp": 1723083511,
  "chain": 88882,
  "multi": false,
  "commit": "ac947a0"
}