{
  "transactions": [
    {
      "hash": "0xbf2e88a1e7f5a99402143895630e180636c1b6143a2d818d5a2fc9d5a2b40d08",
      "transactionType": "CALL",
      "contractName": null,
      "contractAddress": "0x50E21e7c696bfdE12ae2A1ee0F627F7E3C9Ea0D5",
      "function": "transfer(address,uint256)",
      "arguments": [
        "0x2ae3d5567651F6fB7FF61863CA4F7c9E0f277CFE",
        "0"
      ],
      "transaction": {
        "type": "0x02",
        "from": "0x5452b3c46e756e8bcf482ee6490ddcb9f5ef83df",
        "to": "0x50e21e7c696bfde12ae2a1ee0f627f7e3c9ea0d5",
        "gas": "0xef7e",
        "value": "0x0",
        "data": "0xa9059cbb0000000000000000000000002ae3d5567651f6fb7ff61863ca4f7c9e0f277cfe0000000000000000000000000000000000000000000000000000000000000000",
        "nonce": "0x0",
        "accessList": []
      },
      "additionalContracts": [],
      "isFixedGasLimit": false
    },
    {
      "hash": "0x7e5d8499f6c62f7e7a1c2172749ceb281deba401a68c5515649a07b921b01262",
      "transactionType": "CALL",
      "contractName": null,
      "contractAddress": "0x8Dbe110E3f19f5C840e9Ee10e9887DfD234f777F",
      "function": "transfer(address,uint256)",
      "arguments": [
        "0x2ae3d5567651F6fB7FF61863CA4F7c9E0f277CFE",
        "0"
      ],
      "transaction": {
        "type": "0x02",
        "from": "0x5452b3c46e756e8bcf482ee6490ddcb9f5ef83df",
        "to": "0x8dbe110e3f19f5c840e9ee10e9887dfd234f777f",
        "gas": "0xef7e",
        "value": "0x0",
        "data": "0xa9059cbb0000000000000000000000002ae3d5567651f6fb7ff61863ca4f7c9e0f277cfe0000000000000000000000000000000000000000000000000000000000000000",
        "nonce": "0x1",
        "accessList": []
      },
      "additionalContracts": [],
      "isFixedGasLimit": false
    }
  ],
  "receipts": [
    {
      "transactionHash": "0xbf2e88a1e7f5a99402143895630e180636c1b6143a2d818d5a2fc9d5a2b40d08",
      "transactionIndex": "0x0",
      "blockHash": "0xff739be2165d33230a8668ec0790191298c87386b8ba31993009a8e2afd15f68",
      "blockNumber": "0xfbbfbe",
      "from": "0x5452b3c46e756E8bcF482Ee6490dDcB9f5Ef83Df",
      "to": "0x50E21e7c696bfdE12ae2A1ee0F627F7E3C9Ea0D5",
      "cumulativeGasUsed": "0xa3c2",
      "gasUsed": "0xa3c2",
      "contractAddress": null,
      "logs": [
        {
          "address": "0x50E21e7c696bfdE12ae2A1ee0F627F7E3C9Ea0D5",
          "topics": [
            "0xddf252ad1be2c89b69c2b068fc378daa952ba7f163c4a11628f55a4df523b3ef",
            "0x0000000000000000000000005452b3c46e756e8bcf482ee6490ddcb9f5ef83df",
            "0x0000000000000000000000002ae3d5567651f6fb7ff61863ca4f7c9e0f277cfe"
          ],
          "data": "0x0000000000000000000000000000000000000000000000000000000000000000",
          "blockHash": "0xff739be2165d33230a8668ec0790191298c87386b8ba31993009a8e2afd15f68",
          "blockNumber": "0xfbbfbe",
          "transactionHash": "0xbf2e88a1e7f5a99402143895630e180636c1b6143a2d818d5a2fc9d5a2b40d08",
          "transactionIndex": "0x0",
          "logIndex": "0x0",
          "removed": false
        }
      ],
      "status": "0x1",
      "logsBloom": "0x00000000000000000000000000000000000000000000000000000000000000000000000000000000000000000000000000000080000000000000000000000000080000000000000000000008000000000000000000000000080000000000000000000000000000000000000000000000000000000000000000000010000000000000000000000000000000000000000010000000000000000000000000000008000000000200000000000000000000000000000000000000000000000000000040000002000000000000000000000000200000000000000000000000000000000000000000000000000000000000000000000000000020000000000000000000",
      "type": "0x2",
      "effectiveGasPrice": "0xb2d05e00"
    },
    {
      "transactionHash": "0x7e5d8499f6c62f7e7a1c2172749ceb281deba401a68c5515649a07b921b01262",
      "transactionIndex": "0x1",
      "blockHash": "0xff739be2165d33230a8668ec0790191298c87386b8ba31993009a8e2afd15f68",
      "blockNumber": "0xfbbfbe",
      "from": "0x5452b3c46e756E8bcF482Ee6490dDcB9f5Ef83Df",
      "to": "0x8Dbe110E3f19f5C840e9Ee10e9887DfD234f777F",
      "cumulativeGasUsed": "0x14784",
      "gasUsed": "0xa3c2",
      "contractAddress": null,
      "logs": [
        {
          "address": "0x8Dbe110E3f19f5C840e9Ee10e9887DfD234f777F",
          "topics": [
            "0xddf252ad1be2c89b69c2b068fc378daa952ba7f163c4a11628f55a4df523b3ef",
            "0x0000000000000000000000005452b3c46e756e8bcf482ee6490ddcb9f5ef83df",
            "0x0000000000000000000000002ae3d5567651f6fb7ff61863ca4f7c9e0f277cfe"
          ],
          "data": "0x0000000000000000000000000000000000000000000000000000000000000000",
          "blockHash": "0xff739be2165d33230a8668ec0790191298c87386b8ba31993009a8e2afd15f68",
          "blockNumber": "0xfbbfbe",
          "transactionHash": "0x7e5d8499f6c62f7e7a1c2172749ceb281deba401a68c5515649a07b921b01262",
          "transactionIndex": "0x1",
          "logIndex": "0x1",
          "removed": false
        }
      ],
      "status": "0x1",
      "logsBloom": "0x00000000000000000000000000000000000000000002000000000000000000000000000000000000000000000000000000000080000000000000000000000000080000000000000000000008000000000000000000000000080000000000000000000000000000000000000000000000000000000000000000000010000000000000000000000000000000000000000000000000000000000000000000000008000000000210000000000000000000000000000000000000000000000000000000080002000000000000000000000000200000000000000000000000000000000000000000000000000000000000000000000000000000000000000000000000",
      "type": "0x2",
      "effectiveGasPrice": "0xb2d05e00"
    }
  ],
  "libraries": [],
  "pending": [],
  "returns": {},
  "timestamp": 1723083518,
  "chain": 88882,
  "multi": false,
  "commit": "ac947a0"
}